{
  "contractName": "Votethereum",
  "abi": [
    {
      "inputs": [
        {
          "name": "votingSessionName",
          "type": "bytes32"
        }
      ],
      "payable": false,
      "stateMutability": "nonpayable",
      "type": "constructor"
    },
    {
      "anonymous": false,
      "inputs": [
        {
          "indexed": false,
          "name": "errorMessage",
          "type": "string"
        }
      ],
      "name": "ErrorEvent",
      "type": "event"
    },
    {
      "anonymous": false,
      "inputs": [
        {
          "indexed": false,
          "name": "confirmationMessage",
          "type": "string"
        }
      ],
      "name": "ConfirmationEvent",
      "type": "event"
    },
    {
      "anonymous": false,
      "inputs": [
        {
          "indexed": false,
          "name": "resultsArray",
          "type": "bytes32[100]"
        }
      ],
      "name": "ElectionResultsEvent",
      "type": "event"
    },
    {
      "anonymous": false,
      "inputs": [
        {
          "indexed": false,
          "name": "electionsArray",
          "type": "bytes32[50]"
        }
      ],
      "name": "GetElectionsEvent",
      "type": "event"
    },
    {
      "anonymous": false,
      "inputs": [
        {
          "indexed": false,
          "name": "electionOptionsArray",
          "type": "bytes32[50]"
        }
      ],
      "name": "GetElectionOptionsEvent",
      "type": "event"
    },
    {
      "constant": false,
      "inputs": [
        {
          "name": "electionName",
          "type": "bytes32"
        }
      ],
      "name": "addElection",
      "outputs": [],
      "payable": false,
      "stateMutability": "nonpayable",
      "type": "function"
    },
    {
      "constant": true,
      "inputs": [
        {
          "name": "electionName",
          "type": "bytes32"
        }
      ],
      "name": "validateElectionName",
      "outputs": [
        {
          "name": "",
          "type": "bool"
        }
      ],
      "payable": false,
      "stateMutability": "view",
      "type": "function"
    },
    {
      "constant": false,
      "inputs": [
        {
          "name": "electionName",
          "type": "bytes32"
        }
      ],
      "name": "removeElection",
      "outputs": [],
      "payable": false,
      "stateMutability": "nonpayable",
      "type": "function"
    },
    {
      "constant": false,
      "inputs": [
        {
          "name": "electionName",
          "type": "bytes32"
        },
        {
          "name": "optionName",
          "type": "bytes32"
        }
      ],
      "name": "addVotingItem",
      "outputs": [],
      "payable": false,
      "stateMutability": "nonpayable",
      "type": "function"
    },
    {
      "constant": true,
      "inputs": [
        {
          "name": "electionName",
          "type": "bytes32"
        },
        {
          "name": "optionName",
          "type": "bytes32"
        }
      ],
      "name": "validateElectionOptionName",
      "outputs": [
        {
          "name": "",
          "type": "bool"
        }
      ],
      "payable": false,
      "stateMutability": "view",
      "type": "function"
    },
    {
      "constant": false,
      "inputs": [
        {
          "name": "electionName",
          "type": "bytes32"
        },
        {
          "name": "optionName",
          "type": "bytes32"
        }
      ],
      "name": "removeElectionOption",
      "outputs": [],
      "payable": false,
      "stateMutability": "nonpayable",
      "type": "function"
    },
    {
      "constant": false,
      "inputs": [
        {
          "name": "electionName",
          "type": "bytes32"
        },
        {
          "name": "optionName",
          "type": "bytes32"
        },
        {
          "name": "voteBalance",
          "type": "uint256"
        }
      ],
      "name": "castVote",
      "outputs": [],
      "payable": false,
      "stateMutability": "nonpayable",
      "type": "function"
    },
    {
      "constant": false,
      "inputs": [
        {
          "name": "electionName",
          "type": "bytes32"
        },
        {
          "name": "optionName",
          "type": "bytes32"
        }
      ],
      "name": "uncastVote",
      "outputs": [],
      "payable": false,
      "stateMutability": "nonpayable",
      "type": "function"
    },
    {
      "constant": false,
      "inputs": [
        {
          "name": "electionName",
          "type": "bytes32"
        }
      ],
      "name": "getVoterBalanceSpentForElection",
      "outputs": [
        {
          "name": "",
          "type": "uint256"
        }
      ],
      "payable": false,
      "stateMutability": "nonpayable",
      "type": "function"
    },
    {
      "constant": false,
      "inputs": [
        {
          "name": "electionName",
          "type": "bytes32"
        },
        {
          "name": "optionName",
          "type": "bytes32"
        }
      ],
      "name": "getVoteTally",
      "outputs": [
        {
          "name": "",
          "type": "uint256"
        }
      ],
      "payable": false,
      "stateMutability": "nonpayable",
      "type": "function"
    },
    {
      "constant": false,
      "inputs": [
        {
          "name": "electionName",
          "type": "bytes32"
        }
      ],
      "name": "getElectionResults",
      "outputs": [],
      "payable": false,
      "stateMutability": "nonpayable",
      "type": "function"
    },
    {
      "constant": true,
      "inputs": [],
      "name": "getStartTime",
      "outputs": [
        {
          "name": "",
          "type": "uint256"
        }
      ],
      "payable": false,
      "stateMutability": "view",
      "type": "function"
    },
    {
      "constant": true,
      "inputs": [],
      "name": "getEndTime",
      "outputs": [
        {
          "name": "",
          "type": "uint256"
        }
      ],
      "payable": false,
      "stateMutability": "view",
      "type": "function"
    },
    {
      "constant": true,
      "inputs": [],
      "name": "getRealTimeResults",
      "outputs": [
        {
          "name": "",
          "type": "bool"
        }
      ],
      "payable": false,
      "stateMutability": "view",
      "type": "function"
    },
    {
      "constant": true,
      "inputs": [],
      "name": "getElectionChairperson",
      "outputs": [
        {
          "name": "",
          "type": "address"
        }
      ],
      "payable": false,
      "stateMutability": "view",
      "type": "function"
    },
    {
      "constant": true,
      "inputs": [],
      "name": "getMaxVotesPerElection",
      "outputs": [
        {
          "name": "",
          "type": "uint256"
        }
      ],
      "payable": false,
      "stateMutability": "view",
      "type": "function"
    },
    {
      "constant": true,
      "inputs": [],
      "name": "getNow",
      "outputs": [
        {
          "name": "",
          "type": "uint256"
        }
      ],
      "payable": false,
      "stateMutability": "view",
      "type": "function"
    },
    {
      "constant": true,
      "inputs": [],
      "name": "getVotingSessionName",
      "outputs": [
        {
          "name": "",
          "type": "string"
        }
      ],
      "payable": false,
      "stateMutability": "view",
      "type": "function"
    },
    {
      "constant": true,
      "inputs": [],
      "name": "getWhoAmI",
      "outputs": [
        {
          "name": "",
          "type": "address"
        }
      ],
      "payable": false,
      "stateMutability": "view",
      "type": "function"
    },
    {
      "constant": false,
      "inputs": [],
      "name": "getAllElectionNames",
      "outputs": [],
      "payable": false,
      "stateMutability": "nonpayable",
      "type": "function"
    },
    {
      "constant": false,
      "inputs": [
        {
          "name": "electionName",
          "type": "bytes32"
        }
      ],
      "name": "getAllElectionOptionNames",
      "outputs": [],
      "payable": false,
      "stateMutability": "nonpayable",
      "type": "function"
    },
    {
      "constant": false,
      "inputs": [
        {
          "name": "realTimeResults",
          "type": "bool"
        }
      ],
      "name": "setRealTimeResults",
      "outputs": [],
      "payable": false,
      "stateMutability": "nonpayable",
      "type": "function"
    },
    {
      "constant": false,
      "inputs": [
        {
          "name": "maxVotesPerElection",
          "type": "uint256"
        }
      ],
      "name": "setMaxVotesPerElection",
      "outputs": [],
      "payable": false,
      "stateMutability": "nonpayable",
      "type": "function"
    },
    {
      "constant": false,
      "inputs": [
        {
          "name": "startTime",
          "type": "uint256"
        }
      ],
      "name": "setStartTime",
      "outputs": [],
      "payable": false,
      "stateMutability": "nonpayable",
      "type": "function"
    },
    {
      "constant": false,
      "inputs": [
        {
          "name": "endTime",
          "type": "uint256"
        }
      ],
      "name": "setEndTime",
      "outputs": [],
      "payable": false,
      "stateMutability": "nonpayable",
      "type": "function"
    }
  ],
  "bytecode": "0x608060405234801561001057600080fd5b50604051602080612b3f8339810180604052602081101561003057600080fd5b810190808051906020019092919050505033600260016101000a81548173ffffffffffffffffffffffffffffffffffffffff021916908373ffffffffffffffffffffffffffffffffffffffff160217905550806003819055506001600260006101000a81548160ff02191690831515021790555050612a8b806100b46000396000f3fe608060405234801561001057600080fd5b50600436106101735760003560e01c806398f2a204116100de578063bbe4fd5011610097578063e1f5b7cd11610071578063e1f5b7cd146105f9578063e49cb98514610627578063ead6340414610671578063f36be3dd146106a957610173565b8063bbe4fd501461058f578063c828371e146105ad578063ccb98ffc146105cb57610173565b806398f2a20414610435578063aba9f7a414610457578063aee88de4146104a1578063afa83411146104d9578063b3f8253514610507578063bb1059911461053f57610173565b8063443771611161013057806344377161146102f1578063491ea4081461030f5780636ac126a41461033d5780637e89ff591461037f5780639058ce1a146103c157806392e31216146103ef57610173565b80631061c8f9146101785780631f9154f0146101c457806331e242fd146102475780633e0a322d14610277578063439e2ed0146102a5578063439f5ac2146102d3575b600080fd5b6101ae6004803603604081101561018e57600080fd5b8101908080359060200190929190803590602001909291905050506106b3565b6040518082815260200191505060405180910390f35b6101cc6108fc565b6040518080602001828103825283818151815260200191508051906020019080838360005b8381101561020c5780820151818401526020810190506101f1565b50505050905090810190601f1680156102395780820380516001836020036101000a031916815260200191505b509250505060405180910390f35b6102756004803603602081101561025d57600080fd5b8101908080351515906020019092919050505061090e565b005b6102a36004803603602081101561028d57600080fd5b8101908080359060200190929190505050610a39565b005b6102d1600480360360208110156102bb57600080fd5b8101908080359060200190929190505050610b51565b005b6102db610db5565b6040518082815260200191505060405180910390f35b6102f9610dbf565b6040518082815260200191505060405180910390f35b61033b6004803603602081101561032557600080fd5b8101908080359060200190929190505050610dc9565b005b6103696004803603602081101561035357600080fd5b8101908080359060200190929190505050610efc565b6040518082815260200191505060405180910390f35b6103bf6004803603606081101561039557600080fd5b81019080803590602001909291908035906020019092919080359060200190929190505050610fe0565b005b6103ed600480360360208110156103d757600080fd5b81019080803590602001909291905050506113e7565b005b61041b6004803603602081101561040557600080fd5b81019080803590602001909291905050506115dd565b604051808215151515815260200191505060405180910390f35b61043d61161e565b604051808215151515815260200191505060405180910390f35b61045f611635565b604051808273ffffffffffffffffffffffffffffffffffffffff1673ffffffffffffffffffffffffffffffffffffffff16815260200191505060405180910390f35b6104d7600480360360408110156104b757600080fd5b81019080803590602001909291908035906020019092919050505061163d565b005b610505600480360360208110156104ef57600080fd5b81019080803590602001909291905050506119fd565b005b61053d6004803603604081101561051d57600080fd5b810190808035906020019092919080359060200190929190505050611b15565b005b6105756004803603604081101561055557600080fd5b810190808035906020019092919080359060200190929190505050611e81565b604051808215151515815260200191505060405180910390f35b610597611f04565b6040518082815260200191505060405180910390f35b6105b5611f0c565b6040518082815260200191505060405180910390f35b6105f7600480360360208110156105e157600080fd5b8101908080359060200190929190505050611f15565b005b6106256004803603602081101561060f57600080fd5b810190808035906020019092919050505061202d565b005b61062f612300565b604051808273ffffffffffffffffffffffffffffffffffffffff1673ffffffffffffffffffffffffffffffffffffffff16815260200191505060405180910390f35b6106a76004803603604081101561068757600080fd5b81019080803590602001909291908035906020019092919050505061232a565b005b6106b16125f8565b005b6000600260019054906101000a900473ffffffffffffffffffffffffffffffffffffffff1673ffffffffffffffffffffffffffffffffffffffff163373ffffffffffffffffffffffffffffffffffffffff161461075a577f6222dc10afcca3c8cec10b1b08a9bff096c30eb574a3233be051aa5440fc41bb6040518080602001828103825260368152602001806129c66036913960400191505060405180910390a16108f6565b600260009054906101000a900460ff166107be577f6222dc10afcca3c8cec10b1b08a9bff096c30eb574a3233be051aa5440fc41bb6040518080602001828103825260228152602001806129a46022913960400191505060405180910390a16108f5565b6107c7836115dd565b1561088a576107d68383611e81565b1561081d57600560006107e8856126b7565b81526020019081526020016000206002016000610804846126b7565b81526020019081526020016000206002015490506108f4565b7f6222dc10afcca3c8cec10b1b08a9bff096c30eb574a3233be051aa5440fc41bb6040518080602001828103825260168152602001807f496e76616c696420456c656374696f6e204e616d65210000000000000000000081525060200191505060405180910390a16108f3565b7f6222dc10afcca3c8cec10b1b08a9bff096c30eb574a3233be051aa5440fc41bb6040518080602001828103825260148152602001807f496e76616c6964204f7074696f6e204e616d652100000000000000000000000081525060200191505060405180910390a15b5b5b5b92915050565b60606109096003546126ec565b905090565b600260019054906101000a900473ffffffffffffffffffffffffffffffffffffffff1673ffffffffffffffffffffffffffffffffffffffff163373ffffffffffffffffffffffffffffffffffffffff16146109b3577f6222dc10afcca3c8cec10b1b08a9bff096c30eb574a3233be051aa5440fc41bb6040518080602001828103825260368152602001806129c66036913960400191505060405180910390a1610a36565b80600260006101000a81548160ff0219169083151502179055507fa9cbd038e8700fcdd57329fc8f8e52838310e56f32d1c8ef24895c082a5c09106040518080602001828103825260168152602001807f5265616c2054696d6520526573756c7473207365742e0000000000000000000081525060200191505060405180910390a15b50565b600260019054906101000a900473ffffffffffffffffffffffffffffffffffffffff1673ffffffffffffffffffffffffffffffffffffffff163373ffffffffffffffffffffffffffffffffffffffff1614610ade577f6222dc10afcca3c8cec10b1b08a9bff096c30eb574a3233be051aa5440fc41bb6040518080602001828103825260368152602001806129c66036913960400191505060405180910390a1610b4e565b806000819055507fa9cbd038e8700fcdd57329fc8f8e52838310e56f32d1c8ef24895c082a5c09106040518080602001828103825260188152602001807f456c656374696f6e2053746172742054696d65207365742e000000000000000081525060200191505060405180910390a15b50565b600260019054906101000a900473ffffffffffffffffffffffffffffffffffffffff1673ffffffffffffffffffffffffffffffffffffffff163373ffffffffffffffffffffffffffffffffffffffff1614610bf6577f6222dc10afcca3c8cec10b1b08a9bff096c30eb574a3233be051aa5440fc41bb6040518080602001828103825260368152602001806129c66036913960400191505060405180910390a1610db2565b610bff816115dd565b15610d485760066000610c11836126b7565b81526020019081526020016000206000808201600090556001820160009055505060056000610c3f836126b7565b81526020019081526020016000206000808201600090556001820160009055505060005b600880549050811015610cda578160088281548110610c7e57fe5b9060005260206000209060020201600001541415610ccd5760088181548110610ca357fe5b9060005260206000209060020201600080820160009055600182016000610cca9190612887565b50505b8080600101915050610c63565b507fa9cbd038e8700fcdd57329fc8f8e52838310e56f32d1c8ef24895c082a5c09106040518080602001828103825260118152602001807f456c656374696f6e2072656d6f7665642e00000000000000000000000000000081525060200191505060405180910390a1610db1565b7f6222dc10afcca3c8cec10b1b08a9bff096c30eb574a3233be051aa5440fc41bb6040518080602001828103825260168152602001807f496e76616c696420656c656374696f6e206e616d65210000000000000000000081525060200191505060405180910390a15b5b50565b6000600154905090565b6000600454905090565b610dd16128a8565b60005b600880549050811015610e98578260088281548110610def57fe5b9060005260206000209060020201600001541415610e8b5760005b60088281548110610e1757fe5b906000526020600020906002020160010180549050811015610e895760088281548110610e4057fe5b90600052602060002090600202016001018181548110610e5c57fe5b9060005260206000200154838260328110610e7357fe5b6020020181815250508080600101915050610e0a565b505b8080600101915050610dd4565b507ff2e4dc082a7437d4cea88403fc21a0641beb34388cbd7b74ec7de9a425a330e2816040518082603260200280838360005b83811015610ee6578082015181840152602081019050610ecb565b5050505090500191505060405180910390a15050565b6000610f07826115dd565b15610f7257600760003373ffffffffffffffffffffffffffffffffffffffff1673ffffffffffffffffffffffffffffffffffffffff1681526020019081526020016000206001016000610f59846126b7565b8152602001908152602001600020600201549050610fdb565b7f6222dc10afcca3c8cec10b1b08a9bff096c30eb574a3233be051aa5440fc41bb6040518080602001828103825260168152602001807f496e76616c696420656c656374696f6e206e616d65210000000000000000000081525060200191505060405180910390a15b919050565b600260019054906101000a900473ffffffffffffffffffffffffffffffffffffffff1673ffffffffffffffffffffffffffffffffffffffff163373ffffffffffffffffffffffffffffffffffffffff161415611086577f6222dc10afcca3c8cec10b1b08a9bff096c30eb574a3233be051aa5440fc41bb60405180806020018281038252602681526020018061297e6026913960400191505060405180910390a16113e2565b600454811161139557611098836115dd565b15611327576110a78383611e81565b156112b957806110b684610efc565b60045403106112685780600760003373ffffffffffffffffffffffffffffffffffffffff1673ffffffffffffffffffffffffffffffffffffffff168152602001908152602001600020600101600061110d866126b7565b81526020019081526020016000206003016000611129856126b7565b81526020019081526020016000206002016000828254019250508190555080600760003373ffffffffffffffffffffffffffffffffffffffff1673ffffffffffffffffffffffffffffffffffffffff1681526020019081526020016000206001016000611195866126b7565b81526020019081526020016000206002016000828254019250508190555080600560006111c1866126b7565b815260200190815260200160002060020160006111dd856126b7565b8152602001908152602001600020600201600082825401925050819055507fa9cbd038e8700fcdd57329fc8f8e52838310e56f32d1c8ef24895c082a5c09106040518080602001828103825260188152602001807f596f757220766f746520686173206265656e20636173742e000000000000000081525060200191505060405180910390a16112b4565b7f6222dc10afcca3c8cec10b1b08a9bff096c30eb574a3233be051aa5440fc41bb6040518080602001828103825260338152602001806129fc6033913960400191505060405180910390a15b611322565b7f6222dc10afcca3c8cec10b1b08a9bff096c30eb574a3233be051aa5440fc41bb6040518080602001828103825260148152602001807f496e76616c6964206f7074696f6e206e616d652e00000000000000000000000081525060200191505060405180910390a15b611390565b7f6222dc10afcca3c8cec10b1b08a9bff096c30eb574a3233be051aa5440fc41bb6040518080602001828103825260168152602001807f496e76616c696420656c656374696f6e206e616d652e0000000000000000000081525060200191505060405180910390a15b6113e1565b7f6222dc10afcca3c8cec10b1b08a9bff096c30eb574a3233be051aa5440fc41bb604051808060200182810382526031815260200180612a2f6031913960400191505060405180910390a15b5b505050565b600260019054906101000a900473ffffffffffffffffffffffffffffffffffffffff1673ffffffffffffffffffffffffffffffffffffffff163373ffffffffffffffffffffffffffffffffffffffff161461148c577f6222dc10afcca3c8cec10b1b08a9bff096c30eb574a3233be051aa5440fc41bb6040518080602001828103825260368152602001806129c66036913960400191505060405180910390a16115da565b6000611497826126b7565b90508060066000838152602001908152602001600020600001819055508160066000838152602001908152602001600020600101819055506114d76128cb565b82816000018181525050600881908060018154018082558091505090600182039060005260206000209060020201600090919290919091506000820151816000015560208201518160010190805190602001906115359291906128e8565b505050508160056000848152602001908152602001600020600001819055508260056000848152602001908152602001600020600101819055507fa9cbd038e8700fcdd57329fc8f8e52838310e56f32d1c8ef24895c082a5c091060405180806020018281038252601c8152602001807f54686520656c656374696f6e20686173206265656e2061646465642e0000000081525060200191505060405180910390a150505b50565b6000806000905060006115ef846126b7565b9050806006600083815260200190815260200160002060000154141561161457600191505b8192505050919050565b6000600260009054906101000a900460ff16905090565b600033905090565b600260019054906101000a900473ffffffffffffffffffffffffffffffffffffffff1673ffffffffffffffffffffffffffffffffffffffff163373ffffffffffffffffffffffffffffffffffffffff1614156116e3577f6222dc10afcca3c8cec10b1b08a9bff096c30eb574a3233be051aa5440fc41bb60405180806020018281038252602681526020018061297e6026913960400191505060405180910390a16119f9565b6116ec826115dd565b1561198f576116fb8282611e81565b15611921576000600760003373ffffffffffffffffffffffffffffffffffffffff1673ffffffffffffffffffffffffffffffffffffffff168152602001908152602001600020600101600061174f856126b7565b8152602001908152602001600020600301600061176b846126b7565b81526020019081526020016000206002015490506000600760003373ffffffffffffffffffffffffffffffffffffffff1673ffffffffffffffffffffffffffffffffffffffff16815260200190815260200160002060010160006117ce866126b7565b815260200190815260200160002060030160006117ea856126b7565b81526020019081526020016000206002018190555080600760003373ffffffffffffffffffffffffffffffffffffffff1673ffffffffffffffffffffffffffffffffffffffff168152602001908152602001600020600101600061184d866126b7565b8152602001908152602001600020600201600082825403925050819055508060056000611879866126b7565b81526020019081526020016000206002016000611895856126b7565b8152602001908152602001600020600201600082825403925050819055507fa9cbd038e8700fcdd57329fc8f8e52838310e56f32d1c8ef24895c082a5c091060405180806020018281038252601a8152602001807f596f757220766f746520686173206265656e20756e636173742e00000000000081525060200191505060405180910390a15061198a565b7f6222dc10afcca3c8cec10b1b08a9bff096c30eb574a3233be051aa5440fc41bb6040518080602001828103825260148152602001807f496e76616c6964206f7074696f6e206e616d652100000000000000000000000081525060200191505060405180910390a15b6119f8565b7f6222dc10afcca3c8cec10b1b08a9bff096c30eb574a3233be051aa5440fc41bb6040518080602001828103825260168152602001807f496e76616c696420656c656374696f6e206e616d65210000000000000000000081525060200191505060405180910390a15b5b5050565b600260019054906101000a900473ffffffffffffffffffffffffffffffffffffffff1673ffffffffffffffffffffffffffffffffffffffff163373ffffffffffffffffffffffffffffffffffffffff1614611aa2577f6222dc10afcca3c8cec10b1b08a9bff096c30eb574a3233be051aa5440fc41bb6040518080602001828103825260368152602001806129c66036913960400191505060405180910390a1611b12565b806004819055507fa9cbd038e8700fcdd57329fc8f8e52838310e56f32d1c8ef24895c082a5c091060405180806020018281038252601b8152602001807f4d617820566f7465732050657220456c656374696f6e207365742e000000000081525060200191505060405180910390a15b50565b600260019054906101000a900473ffffffffffffffffffffffffffffffffffffffff1673ffffffffffffffffffffffffffffffffffffffff163373ffffffffffffffffffffffffffffffffffffffff1614611bba577f6222dc10afcca3c8cec10b1b08a9bff096c30eb574a3233be051aa5440fc41bb6040518080602001828103825260368152602001806129c66036913960400191505060405180910390a1611e7d565b611bc3826115dd565b15611e7c57611bd28282611e81565b15611e125760066000611be4846126b7565b81526020019081526020016000206002016000611c00836126b7565b815260200190815260200160002060008082016000905560018201600090555050600060056000611c30856126b7565b81526020019081526020016000206002016000611c4c846126b7565b81526020019081526020016000206002018190555060056000611c6e846126b7565b81526020019081526020016000206002016000611c8a836126b7565b815260200190815260200160002060008082016000905560018201600090556002820160009055505060005b600880549050811015611da4578260088281548110611cd157fe5b9060005260206000209060020201600001541415611d975760005b60088281548110611cf957fe5b906000526020600020906002020160010180549050811015611d95578260088381548110611d2357fe5b90600052602060002090600202016001018281548110611d3f57fe5b90600052602060002001541415611d885760088281548110611d5d57fe5b90600052602060002090600202016001018181548110611d7957fe5b90600052602060002001600090555b8080600101915050611cec565b505b8080600101915050611cb6565b507fa9cbd038e8700fcdd57329fc8f8e52838310e56f32d1c8ef24895c082a5c091060405180806020018281038252601d8152602001807f4f7074696f6e2072656d6f7665642066726f6d20656c656374696f6e2e00000081525060200191505060405180910390a1611e7b565b7f6222dc10afcca3c8cec10b1b08a9bff096c30eb574a3233be051aa5440fc41bb60405180806020018281038252601f8152602001807f496e76616c696420456c656374696f6e202f204f7074696f6e206e616d652e0081525060200191505060405180910390a15b5b5b5050565b600080600090506000611e93856126b7565b90506000611ea0856126b7565b90508160066000848152602001908152602001600020600001541415611ef85780600660008481526020019081526020016000206002016000838152602001908152602001600020600001541415611ef757600192505b5b82935050505092915050565b600042905090565b60008054905090565b600260019054906101000a900473ffffffffffffffffffffffffffffffffffffffff1673ffffffffffffffffffffffffffffffffffffffff163373ffffffffffffffffffffffffffffffffffffffff1614611fba577f6222dc10afcca3c8cec10b1b08a9bff096c30eb574a3233be051aa5440fc41bb6040518080602001828103825260368152602001806129c66036913960400191505060405180910390a161202a565b806001819055507fa9cbd038e8700fcdd57329fc8f8e52838310e56f32d1c8ef24895c082a5c09106040518080602001828103825260168152602001807f456c656374696f6e20456e642054696d65207365742e0000000000000000000081525060200191505060405180910390a15b50565b600260019054906101000a900473ffffffffffffffffffffffffffffffffffffffff1673ffffffffffffffffffffffffffffffffffffffff163373ffffffffffffffffffffffffffffffffffffffff16146120d2577f6222dc10afcca3c8cec10b1b08a9bff096c30eb574a3233be051aa5440fc41bb6040518080602001828103825260368152602001806129c66036913960400191505060405180910390a16122fd565b600260009054906101000a900460ff16612136577f6222dc10afcca3c8cec10b1b08a9bff096c30eb574a3233be051aa5440fc41bb6040518080602001828103825260228152602001806129a46022913960400191505060405180910390a16122fc565b61213e612935565b600080905060008090505b60088054905081101561229957836008828154811061216457fe5b906000526020600020906002020160000154141561228c5760008090505b6008828154811061218f57fe5b90600052602060002090600202016001018054905081101561228a576000612208600884815481106121bd57fe5b906000526020600020906002020160000154600885815481106121dc57fe5b906000526020600020906002020160010184815481106121f857fe5b90600052602060002001546106b3565b90506008838154811061221757fe5b9060005260206000209060020201600101828154811061223357fe5b906000526020600020015485856064811061224a57fe5b60200201818152505083806001019450508060001b85856064811061226b57fe5b6020020181815250508380600101945050508080600101915050612182565b505b8080600101915050612149565b507f02ff05f9cc54fe087a55b98b5000e7bd9b00c606a0520f1cc55db5f5aef615a0826040518082606460200280838360005b838110156122e75780820151818401526020810190506122cc565b5050505090500191505060405180910390a150505b5b50565b6000600260019054906101000a900473ffffffffffffffffffffffffffffffffffffffff16905090565b600260019054906101000a900473ffffffffffffffffffffffffffffffffffffffff1673ffffffffffffffffffffffffffffffffffffffff163373ffffffffffffffffffffffffffffffffffffffff16146123cf577f6222dc10afcca3c8cec10b1b08a9bff096c30eb574a3233be051aa5440fc41bb6040518080602001828103825260368152602001806129c66036913960400191505060405180910390a16125f4565b60006123da836126b7565b905060006123e7836126b7565b9050816006600084815260200190815260200160002060000154146124105761240f846113e7565b5b8060066000848152602001908152602001600020600201600083815260200190815260200160002060000181905550826006600084815260200190815260200160002060020160008381526020019081526020016000206001018190555060005b6008805490508110156124fa57846008828154811061248c57fe5b90600052602060002090600202016000015414156124ed57600881815481106124b157fe5b90600052602060002090600202016001018490806001815401808255809150509060018203906000526020600020016000909192909190915055505b8080600101915050612471565b50806005600084815260200190815260200160002060020160008381526020019081526020016000206000018190555082600560008481526020019081526020016000206002016000838152602001908152602001600020600101819055506000600560008481526020019081526020016000206002016000838152602001908152602001600020600201819055507fa9cbd038e8700fcdd57329fc8f8e52838310e56f32d1c8ef24895c082a5c09106040518080602001828103825260198152602001807f4f7074696f6e20616464656420746f20656c656374696f6e2e0000000000000081525060200191505060405180910390a150505b5050565b6126006128a8565b60008090505b600880549050811015612654576008818154811061262057fe5b90600052602060002090600202016000015482826032811061263e57fe5b6020020181815250508080600101915050612606565b507f7f84dedd3a22695ea33aafc1ccd91efeb431b9a516e9d755b6fe031a176e215f816040518082603260200280838360005b838110156126a2578082015181840152602081019050612687565b5050505090500191505060405180910390a150565b600080826040516020018082815260200191505060405160208183030381529060405280519060200120905080915050919050565b60608060206040519080825280601f01601f1916602001820160405280156127235781602001600182028038833980820191505090505b509050600080905060008090506000809050600091505b60208210156127d65760008260080260020a8760001c0260001b9050600060f81b817effffffffffffffffffffffffffffffffffffffffffffffffffffffffffffff1916146127c8578085858151811061279057fe5b60200101907effffffffffffffffffffffffffffffffffffffffffffffffffffffffffffff1916908160001a90535083806001019450505b50818060010192505061273a565b6060836040519080825280601f01601f19166020018201604052801561280b5781602001600182028038833980820191505090505b509050600091505b8382101561287a5784828151811061282757fe5b602001015160f81c60f81b81838151811061283e57fe5b60200101907effffffffffffffffffffffffffffffffffffffffffffffffffffffffffffff1916908160001a9053508180600101925050612813565b8095505050505050919050565b50805460008255906000526020600020908101906128a59190612958565b50565b604051806106400160405280603290602082028038833980820191505090505090565b604051806040016040528060008019168152602001606081525090565b828054828255906000526020600020908101928215612924579160200282015b82811115612923578251825591602001919060010190612908565b5b5090506129319190612958565b5090565b60405180610c800160405280606490602082028038833980820191505090505090565b61297a91905b8082111561297657600081600090555060010161295e565b5090565b9056fe4f6e6c79206120766f7465722063616e2061636365737320746869732066756e6374696f6e215265616c2054696d6520526573756c747320617265206e6f7420616c6c6f776564214f6e6c792074686520656c656374696f6e206368616972706572736f6e2063616e2061636365737320746869732066756374696f6e21596f75206172652063617374696e67206d6f726520766f746573207468616e20796f7520686176652072656d61696e696e672143617374696e67206d6f726520766f746573207468616e20616c6c6f77656420696e207468697320656c656374696f6e21a165627a7a72305820089b0ead952378c4fbb322a01b27f5d8c4915e624313b1c39b7609d6b447a0e30029",
  "source": "pragma solidity ^0.5.8;\n\n/// @title Voting with delegation.\ncontract Votethereum {\n    \n    // Variable for Start Time of election.\n    uint internal lStartTime;\n    // Variable for End Time of election.\n    uint internal lEndTime;\n    // Variable to indicate whether real-time results can be shared or not\n    bool internal lRealTimeResults;\n    // The entity which instantitated this contract\n    address internal lElectionChairperson;\n    // Variable for voting session name\n    bytes32 internal lVotingSessionName;\n    \n    // Variable for the maximum number of total vote credits that can be cast for a single election\n    uint internal lMaxVotesPerElection;\n\n    bytes32 constant SUCCESSMESSAGE = \"SUCCESS\";\n    bytes32 constant FAILMESSAGE = \"FAIL\";\n    \n    // structs to track vote by election, option\n    struct VotingOption {\n        bytes32 optionNameHash;\n        bytes32 optionName;\n        uint voteBalance;\n    } // VotingOption\n    struct Election {\n        bytes32 electionNameHash;\n        bytes32 electionName;        \n        mapping(bytes32 => VotingOption) votingOptions;\n    } // Election\n    // structs to track ballot options (no votes)\n    struct AllowedVotingOption {\n        bytes32 optionNameHash;\n        bytes32 optionName;\n    } // AllowedVotingOption\n    struct AllowedElectionOption {\n        bytes32 electionNameHash;\n        bytes32 electionName;\n        mapping(bytes32 => AllowedVotingOption) allowedVotingOptions;\n    } // AllowedElectionOption\n    // structs to track voters and their votes\n    struct OptionVote {\n        bytes32 optionNameHash;\n        bytes32 optionName;\n        uint voteBalance;\n    } // OptionVote\n    struct ElectionVote {\n        bytes32 electionNameHash;\n        bytes32  electionName;\n        uint electionVoteBalance;\n        mapping(bytes32 => OptionVote) myOptionVotes;\n    } // ElectionVote\n    struct Voter {\n        address voterID;\n        mapping(bytes32 => ElectionVote) myElectionVotes;\n    } // Voter\n    // struct for returning arrays of elections and options\n    struct ElectionInfo {\n        bytes32 electionName;\n        bytes32[] optionNames;\n    } // ElectionInfo\n\n\n    // Mappings for allowed elections, election votes, and voter info\n    mapping(bytes32 => Election) internal elections;\n    mapping(bytes32 => AllowedElectionOption) internal allowedElections;\n    mapping(address => Voter) internal voters;\n    ElectionInfo[] myElectionInfo; \n\n\n    // Function Modifiers\n    // Only allow function execution if the Voting Session has not started yet.\n    modifier onlyIfBeforeStartTime() { \n        // TODO: uncomment!\n        /*\n        if (now > lStartTime) {\n            ErrorEvent(\"This function can only be performed before the voting session!\");\n        } else {\n            _;\n        }\n        */\n        // TODO: delete\n        _;\n    } // onlyIfBeforeStartTime\n    // Only allow function execution if the Voting Session is currently open.\n    modifier onlyIfDuringVotingSession() { \n        // TODO: uncomment!\n        /*\n        if ((now < lStartTime) || (now >= lEndTime)) {\n            ErrorEvent(\"This function can only be performed during the voting session!\");\n        } else {\n            _;\n        }\n    \n        */\n        // TODO: delete\n        _;\n    } // onlyIfDuringVotingSession\n    // Only allow function execution if the Voting Session has ended.\n    modifier onlyIfAfterEndTime() { \n        // TODO: uncomment!\n        /*\n        if (now < lEndTime) {\n            ErrorEvent(\"This function can only be performed after the election!\");\n        } else {\n            _;\n        }\n        */\n        // TODO: delete\n        _;\n    } // onlyIfAfterEndTime\n    modifier onlyIfChairperson() {\n        if (msg.sender != lElectionChairperson) {\n            emit ErrorEvent(\"Only the election chairperson can access this fuction!\");\n        } else {\n            _;\n        }\n    } // onlyIfChairperson\n    modifier onlyIfNotChairperson() {\n        if (msg.sender == lElectionChairperson) {\n            emit ErrorEvent(\"Only a voter can access this function!\");\n        } else {\n            _;\n        }\n    } // onlyIfNotChairperson\n    modifier onlyIfRealTimeResults() {\n        if (!lRealTimeResults) {\n            emit ErrorEvent(\"Real Time Results are not allowed!\");\n        } else {\n            _;\n        }\n    } // onlyIfRealTimeResults\n\n\n    // Events\n    event ErrorEvent(string errorMessage);\n    event ConfirmationEvent(string confirmationMessage);\n    event ElectionResultsEvent(bytes32[100] resultsArray);\n    event GetElectionsEvent(bytes32[50] electionsArray);\n    event GetElectionOptionsEvent(bytes32[50] electionOptionsArray);\n\n\n    // constructor\n    /// Create a new ballot to choose one of the supplied `optionNames`.\n    constructor(bytes32 votingSessionName) public {\n        lElectionChairperson = msg.sender;\n        lVotingSessionName = votingSessionName;\n        lRealTimeResults = true;\n    } // Votethereum\n\n    // Add an election to the ballot.\n    function addElection(bytes32 electionName) public onlyIfChairperson() {        \n        bytes32 electionNameHash = getHash(electionName);\n\n        allowedElections[electionNameHash].electionNameHash = electionNameHash;\n        allowedElections[electionNameHash].electionName = electionName;\n        \n        ElectionInfo memory thisInfo;\n        thisInfo.electionName = electionName;\n        myElectionInfo.push(thisInfo);\n        \n        elections[electionNameHash].electionNameHash = electionNameHash;\n        elections[electionNameHash].electionName = electionName;\n\n        emit ConfirmationEvent(\"The election has been added.\");\n    } // addVotingItem\n    function validateElectionName(bytes32 electionName) view public returns (bool) {\n        bool returnValue = false;\n        bytes32 electionNameHash = getHash(electionName);\n        if (allowedElections[electionNameHash].electionNameHash == electionNameHash) {\n            returnValue = true;\n        } // if\n        return (returnValue);\n    } // validateElectionName\n    // Remove the Voting Item with with the supplied Election Name from the Voting Items collection.\n    function removeElection(bytes32 electionName) public onlyIfBeforeStartTime() onlyIfChairperson() {\n        if (validateElectionName(electionName)) {\n            delete allowedElections[getHash(electionName)];            \n            delete elections[getHash(electionName)];\n            for (uint i; i < myElectionInfo.length; i++) {\n                if (myElectionInfo[i].electionName == electionName) {\n                    delete myElectionInfo[i];\n                } // if\n            } // for\n            emit ConfirmationEvent(\"Election removed.\");\n        } else {\n            emit ErrorEvent(\"Invalid election name!\");\n        } // if\n    } // removeElection\n\n\n    // Add an option for an election (ie - candidate) on the ballot.\n    function addVotingItem(bytes32 electionName, bytes32 optionName) public onlyIfBeforeStartTime() onlyIfChairperson() {\n        bytes32 electionNameHash = getHash(electionName);\n        bytes32 optionNameHash = getHash(optionName);\n        \n        // check to see if election exists, if not create before adding voting options to it\n        if (allowedElections[electionNameHash].electionNameHash != electionNameHash) {\n            addElection(electionName);\n        } // if\n                \n        allowedElections[electionNameHash].allowedVotingOptions[optionNameHash].optionNameHash = optionNameHash;\n        allowedElections[electionNameHash].allowedVotingOptions[optionNameHash].optionName = optionName;\n        \n        for (uint i; i < myElectionInfo.length; i++) {\n            if (myElectionInfo[i].electionName == electionName) {\n                myElectionInfo[i].optionNames.push(optionName);\n            } // if\n        } // for\n        \n        elections[electionNameHash].votingOptions[optionNameHash].optionNameHash = optionNameHash;\n        elections[electionNameHash].votingOptions[optionNameHash].optionName = optionName;\n        elections[electionNameHash].votingOptions[optionNameHash].voteBalance = 0;\n\n        emit ConfirmationEvent(\"Option added to election.\");\n    } // addVotingItem\n    function validateElectionOptionName(bytes32 electionName, bytes32 optionName) view public returns (bool) {\n        bool returnValue = false;\n        bytes32 electionNameHash = getHash(electionName);\n        bytes32 electionOptionNameHash = getHash(optionName);\n        \n        if (allowedElections[electionNameHash].electionNameHash == electionNameHash) {\n            if (allowedElections[electionNameHash].allowedVotingOptions[electionOptionNameHash].optionNameHash == electionOptionNameHash) {\n                returnValue = true;    \n            } // if\n        } // if\n        return returnValue;\n    } // validateElectionOptionName\n    // Remove the Voting Item with with the supplied Election Name from the Voting Items collection.\n    function removeElectionOption(bytes32 electionName, bytes32 optionName) public onlyIfBeforeStartTime() onlyIfChairperson() {\n         if (validateElectionName(electionName)) {\n            if (validateElectionOptionName(electionName, optionName)) {\n                delete allowedElections[getHash(electionName)].allowedVotingOptions[getHash(optionName)];\n                elections[getHash(electionName)].votingOptions[getHash(optionName)].voteBalance = 0;\n                delete elections[getHash(electionName)].votingOptions[getHash(optionName)];  \n                \n                for (uint i; i < myElectionInfo.length; i++) {\n                    if (myElectionInfo[i].electionName == electionName) {\n                        for (uint u; u < myElectionInfo[i].optionNames.length; u++) {\n                            if (myElectionInfo[i].optionNames[u] == optionName) {\n                               delete myElectionInfo[i].optionNames[u]; \n                            } // if\n                        } // for\n                    } // if\n                } // for\n                emit ConfirmationEvent(\"Option removed from election.\");\n            } else {\n                emit ErrorEvent(\"Invalid Election / Option name.\");\n            }// if\n        } // if\n    } // removeElectionOption\n\n\n    // Voting functions\n    function castVote(bytes32 electionName, bytes32 optionName, uint voteBalance) public onlyIfDuringVotingSession() onlyIfNotChairperson() {\n        // is the user casting more votes in the this election than they are allowed to?\n        if (voteBalance <= lMaxVotesPerElection) {\n            // if the election name is valid\n            if (validateElectionName(electionName)) {\n                // if the option name is valid\n                if (validateElectionOptionName(electionName, optionName)) {\n                    // if voter has enough balance remaining\n                    if ((lMaxVotesPerElection - getVoterBalanceSpentForElection(electionName)) >= voteBalance) {\n                        voters[msg.sender].myElectionVotes[getHash(electionName)].myOptionVotes[getHash(optionName)].voteBalance += voteBalance; \n                        voters[msg.sender].myElectionVotes[getHash(electionName)].electionVoteBalance += voteBalance;\n                        elections[getHash(electionName)].votingOptions[getHash(optionName)].voteBalance += voteBalance;\n                        emit ConfirmationEvent(\"Your vote has been cast.\");\n                    } else {\n                        emit ErrorEvent(\"You are casting more votes than you have remaining!\");\n                    } // if\n                } else {\n                    emit ErrorEvent(\"Invalid option name.\");\n                } // if\n            } else {\n                emit ErrorEvent(\"Invalid election name.\");\n            } // if\n        } else {\n            emit ErrorEvent(\"Casting more votes than allowed in this election!\");\n        } // if\n    } // castVote\n    function uncastVote(bytes32 electionName, bytes32 optionName) public onlyIfDuringVotingSession() onlyIfNotChairperson() {\n        // if the election name is valid\n        if (validateElectionName(electionName)) {\n            // if the option name is valid\n            if (validateElectionOptionName(electionName, optionName)) {\n                uint votedBalance = voters[msg.sender].myElectionVotes[getHash(electionName)].myOptionVotes[getHash(optionName)].voteBalance;\n                voters[msg.sender].myElectionVotes[getHash(electionName)].myOptionVotes[getHash(optionName)].voteBalance = 0;\n                voters[msg.sender].myElectionVotes[getHash(electionName)].electionVoteBalance -= votedBalance;\n                elections[getHash(electionName)].votingOptions[getHash(optionName)].voteBalance -= votedBalance;\n                emit ConfirmationEvent(\"Your vote has been uncast.\");\n            } else {\n                emit ErrorEvent(\"Invalid option name!\");\n            } // if\n        } else { \n            emit ErrorEvent(\"Invalid election name!\");\n        } // if\n    } // uncastVote\n    function getVoterBalanceSpentForElection(bytes32 electionName) public returns (uint) {\n        // if the election name is valid\n        if (validateElectionName(electionName)) {\n            return voters[msg.sender].myElectionVotes[getHash(electionName)].electionVoteBalance;\n        } else {\n            emit ErrorEvent(\"Invalid election name!\");\n        } // if\n    } // getVoterBalanceSpentForElection\n\n\n    // Election Results\n    function getVoteTally(bytes32 electionName, bytes32 optionName) public onlyIfChairperson() onlyIfRealTimeResults() returns (uint) {        \n        // if the election name is valid\n        if (validateElectionName(electionName)) {\n            // if the option name is valid\n            if (validateElectionOptionName(electionName, optionName)) {\n                return (elections[getHash(electionName)].votingOptions[getHash(optionName)].voteBalance);\n            } else { \n                emit ErrorEvent(\"Invalid Election Name!\");\n            } // if\n        } else { \n            emit ErrorEvent(\"Invalid Option Name!\");\n        } // if\n    } // getVoteTally   \n    function getElectionResults(bytes32 electionName) public onlyIfChairperson() onlyIfRealTimeResults() {        \n        bytes32[100] memory returnValue;  \n        uint returnIndex = 0;     \n\n        for (uint e = 0; e < myElectionInfo.length; e++) {\n            if (myElectionInfo[e].electionName == electionName) {\n                for (uint o = 0; o < myElectionInfo[e].optionNames.length; o++) {\n                    uint uVoteTally = getVoteTally(myElectionInfo[e].electionName, myElectionInfo[e].optionNames[o]);\n                    returnValue[returnIndex] = myElectionInfo[e].optionNames[o];\n                    returnIndex++;\n                    returnValue[returnIndex] = bytes32(uVoteTally);\n                    returnIndex++;\n                } // for\n            } // if\n        } // for\n        emit ElectionResultsEvent(returnValue);        \n    } // getElectionResults\n    \n\n    // GETTERS *************************************************************************\n    function getStartTime() view public returns (uint) {\n        return (lStartTime);\n    } // getStartTime\n    function getEndTime() view public returns (uint) {\n        return (lEndTime);\n    } // getEndTime\n    function getRealTimeResults() view public returns (bool) {\n        return (lRealTimeResults);\n    } // getRealTimeResults\n    function getElectionChairperson() view public returns (address) {\n        return (lElectionChairperson);\n    } // getElectionChairperson\n\n\n    // Returns the Maximum Number of Votes each Voter can cast in an election.\n    function getMaxVotesPerElection() view public returns (uint) {        \n        return (lMaxVotesPerElection);\n    } // getMaxVotesPerElection\n    \n    \n    function getNow() view public returns (uint) {\n        return (now);\n    } // getNow\n    function getVotingSessionName() view public returns (string memory) {\n        return (bytes32ToString(lVotingSessionName));\n    } // getVotingSessionName\n    function getWhoAmI() view public returns (address) {\n        return (msg.sender);\n    } // whoAmI   \n    function getAllElectionNames() public {\n        bytes32[50] memory returnArray;\n        for (uint i = 0; i < myElectionInfo.length; i++) {\n            returnArray[i] = myElectionInfo[i].electionName;\n        } // for\n        emit GetElectionsEvent(returnArray);        \n    } // getAllElectionNames\n    function getAllElectionOptionNames(bytes32 electionName) public {\n        bytes32[50] memory returnArray;\n        for (uint i; i < myElectionInfo.length; i++) {\n            if (myElectionInfo[i].electionName == electionName) {\n                for (uint u; u < myElectionInfo[i].optionNames.length; u++) {\n                    returnArray[u] = myElectionInfo[i].optionNames[u];\n                } // for\n            } // if\n        } // for\n        emit GetElectionOptionsEvent(returnArray);\n    } // getAllElectionOptionNames\n   \n\n    // SETTERS ************************************************************************* \n    function setRealTimeResults(bool realTimeResults) public onlyIfChairperson() {\n        lRealTimeResults = realTimeResults;\n        emit ConfirmationEvent(\"Real Time Results set.\");\n    } // SetRealTimeResults\n\n\n    // Sets the Maximum Number of Votes each Voter can cast in an election.\n    function setMaxVotesPerElection(uint maxVotesPerElection) public onlyIfChairperson() {\n        lMaxVotesPerElection = maxVotesPerElection;\n        emit ConfirmationEvent(\"Max Votes Per Election set.\");\n    } // SetMaxVotesPerElection\n\n\n\n    function setStartTime(uint startTime) public onlyIfChairperson() {\n        lStartTime = startTime;\n        emit ConfirmationEvent(\"Election Start Time set.\");\n    } // SetStartTime\n    function setEndTime(uint endTime) public onlyIfChairperson() {\n        lEndTime = endTime;\n        emit ConfirmationEvent(\"Election End Time set.\");\n    } // SetEndTime\n\n\n    // UTILITY ************************************************************************* \n    // Returns the hash of the provided string.\n    function getHash(bytes32 hashThisPlease) pure internal returns (bytes32) {\n        bytes32 myResult = keccak256(abi.encode(hashThisPlease)); \n        return (myResult);\n    } // getHash\n    function bytes32ToString(bytes32 x) pure private returns (string memory) {\n        bytes memory bytesString = new bytes(32);\n        uint charCount = 0;\n        uint j = 0;\n        uint k = 0;\n        for (j = 0; j < 32; j++) {\n            byte char = byte(bytes32(uint(x) * 2 ** (8 * j)));\n            if (char != 0) {\n                bytesString[charCount] = char;\n                charCount++;\n            }\n        }\n        bytes memory bytesStringTrimmed = new bytes(charCount);\n        for (k = 0; k < charCount; k++) {\n            bytesStringTrimmed[k] = bytesString[k];\n        }\n        return string(bytesStringTrimmed);\n    } // bytes32ToString\n\n\n    // ************************************************************************\n    // ************************************************************************* \n    \n    \n} // Votethereum\n",
  "sourcePath": "/home/student/Desktop/Projects/votethereum/contracts/Votethereum.sol",
  "compiler": {
    "name": "solc",
    "version": "0.5.8+commit.23d335f2.Emscripten.clang"
  },
  "schemaVersion": "3.0.11",
  "updatedAt": "2023-01-24T19:11:46.497Z",
  "devdoc": {
    "methods": {},
    "title": "Voting with delegation."
  },
  "userdoc": {
    "methods": {
      "constructor": "Create a new ballot to choose one of the supplied `optionNames`."
    }
  }
}